:020000040800F2
:1000000000050220C1010008C9010008CB01000859
:10001000CD010008CF010008D10100080000000058
:10002000000000000000000000000000D3010008F4
:10003000D501000800000000D7010008B90C000835
:10004000DB010008DB010008DB010008DB01000820
:10005000DB010008DB0100081D060008DB010008C9
:10006000DB010008DB010008DB010008DB01000800
:10007000DB010008DB010008DB010008DB010008F0
:10008000DB010008DB010008DB010008DB010008E0
:10009000DB010008DB010008DB010008DB010008D0
:1000A000DB010008850E0008DB010008DB01000809
:1000B000DB010008DB010008DB010008DB010008B0
:1000C000DB010008DB010008DB010008DB010008A0
:1000D000DB010008DB010008DB010008DB01000890
:1000E000DB010008DB010008DB010008DB01000880
:1000F000F10F0008DB010008DB010008DB0100084C
:10010000DB010008DB010008DB010008DB0100085F
:10011000DB010008DB010008DB010008DB0100084F
:10012000D9030008DB010008DB010008DB0100083F
:10013000DB010008DB010008DB010008DB0100082F
:10014000DB010008DB010008DB010008DB0100081F
:10015000DB010008DB010008DB010008DB0100080F
:10016000DB010008DB010008DB010008DB010008FF
:10017000DB010008DB010008DB010008DB010008EF
:10018000DB010008DB010008DB010008DB010008DF
:10019000DB010008DB010008DB010008DB010008CF
:1001A000DB010008DB010008DB010008DFF80CD0F0
:1001B00000F02EF800480047D11500080005022085
:1001C0000648804706480047FEE7FEE7FEE7FEE7F1
:1001D000FEE7FEE7FEE7FEE7FEE7FEE7290D000883
:1001E000AD01000830B50B46014600202022012455
:1001F00009E021FA02F59D4205D303FA02F5491BF5
:1002000004FA02F52844151EA2F10102F1DC30BD0A
:10021000064C074D06E0E06840F0010394E8070053
:1002200098471034AC42F6D3FFF7C4FF30170008EC
:100230005017000810B5044600F0EAFB204600F015
:10024000FBFB10BD21B1826842F00102826003E035
:10025000826822F001028260704700000021084A93
:100260001168084A1140D0E900231A4383681A43F1
:10027000C3681A431143044AC2F8041370470000CC
:1002800004230140E030FCFF0020014021B18268DE
:1002900042F48072826003E0826822F4807282609D
:1002A000704721B1826842F40072826003E0826884
:1002B00022F400728260704730B5024600200023AD
:1002C0005068104C20400D790C6844EA0524204306
:1002D000506090680C4C2040D1E903542C438D6849
:1002E0002C434D7944EA450420439060D06A20F4C1
:1002F00070000C7D641EE4B2234340EA0350D062D8
:1003000030BD0000FFFEFFFCFDF7FFC0F0B5044666
:100310000D4600200021092D11DDE068A5F10A0637
:1003200006EB4607072606FA07F18843A5F10A06F9
:1003300006EB460603FA06F10843E0600CE020698C
:1003400005EB4507072606FA07F1884305EB450646
:1003500003FA06F108432061072A0FDA606B561E84
:1003600006EB86071F2606FA07F18843561E06EBA2
:10037000860605FA06F10843606322E00D2A0FDACB
:10038000206BD61F06EB86071F2606FA07F1884367
:10039000D61F06EB860605FA06F10843206310E037
:1003A000E06AA2F10D0606EB86071F2606FA07F1A2
:1003B0008843A2F10D0606EB860605FA06F108430E
:1003C000E062F0BD00210160017141718160C16096
:1003D000016101210175704710B50849084800F016
:1003E00055F850B10220074908600021044800F088
:1003F00041F80549024800F023F810BD20800010A4
:1004000010640240D4000020200000100246094B76
:100410009A4201D2084801E00648103801F0005322
:100420001BB1064B0B40C36002E0044B0B408360E2
:100430007047000010640240006002407D0F7D0F95
:100440000246094B9A4201D2084801E0064810389A
:1004500001F000531BB1064B0B40C36002E0044B9C
:100460000B4083607047000010640240006002404F
:100470007D0F7D0F21B1026842F00102026003E0AE
:10048000026822F0010202607047000070B5024667
:10049000002000240025124EB24201D2114B01E08F
:1004A0000F4B103B104E0E4036B11E2606EAD124EB
:1004B000166806EA040502E0566906F0800501F0B8
:1004C00000560EB15C6800E01C68084E344004EA37
:1004D000010616B10DB1012000E0002070BD000042
:1004E00010640240006002403C0F3C0F7D0F7D0F06
:1004F00010B501F080034BB122B1436943F0800392
:10050000436103E0436923F08003436180290BD0FA
:100510002AB1036801F01E042343036004E003686A
:1005200001F01E04A343036010BD000010B50022BB
:100530000268134B1A40CC680B6823434C69234371
:100540008C692343CC6923430C6A23434C6A2343BD
:100550008C6A23434C6B23438C6B23431A43026006
:10056000426922F00702D1E90B3423431A43426166
:100570000B6943604B6883608B68C36010BD0000EB
:100580003F801CF000B587B00121084600F0ACF9AF
:100590000121102000F0B8F900208DF81A00012088
:1005A0008DF81B0002208DF819008DF8180000024C
:1005B000059005A9174800F0E5F802208DF818000D
:1005C0004002059005A9134800F0DCF807220A2133
:1005D000104800F01FF9072209210E4800F01AF90F
:1005E0004FF4E13001900020ADF80800ADF80A00AA
:1005F000ADF80C00ADF810000C20ADF80E0001A90C
:10060000054800F039FE0121034800F01BFE07B049
:1006100000BD0000000002400010014010B50120A4
:1006200000F01EF870B108490968084A12681144C0
:10063000074A1268521C01FB02F000F055FF01202E
:1006400000F008F810BD0000DC000020E4000020ED
:10065000B40000200149086070470000143C0140CC
:1006600001460020034A12680A400AB1012000E056
:1006700000207047143C0140002123498279002A60
:100680003AD00A46126803689A430B461A600A1D5C
:10069000126803689A430B1D1A60027911440A68B4
:1006A00003681A430A60184A0832126803689A43BA
:1006B000154B08331A601A1D126803689A43124BCF
:1006C0000C331A604279102A0ED11A1F126803687F
:1006D0001A430D4B08331A601A1D126803681A4337
:1006E000094B0C331A600DE00749427911440A683E
:1006F00003681A430A6005E0027911440A68036836
:100700009A430A6070470000003C014000B585B084
:100710000121084600F0E8F80121880300F0F4F810
:100720004FF4C06000F0D6F806208DF800000120DC
:100730008DF801008DF802008DF80300684600F086
:100740008DF80120039000208DF810008DF8130023
:1007500003A90B4800F016F80021084600F0FCF948
:100760000120019000208DF8080008208DF8090074
:1007700001208DF80A0001A8FFF77EFF05B000BD3B
:1007800000000240F0B50A4600210023002400BF0B
:100790003DE0012505FA01F3156805EA03049C42D2
:1007A00034D105684F000326BE40B5430560157976
:1007B0004E00B5400668354305601579012D02D01D
:1007C0001579022D16D185684F000326BE40B5432A
:1007D000856055794E00B54086683543856045682B
:1007E00001268E40B5434560456896798E40B6B285
:1007F00035434560C5684F000326BE40B543C5601C
:10080000D5794E00B540C6683543C560491C1029EE
:10081000BFD3F0BDF0B5002300244D07ED0E02FA62
:1008200005F3CE1000F1200555F826504E07F70EBF
:100830000F26BE40B543CF1000F1200646F82750E2
:10084000CE1000F1200555F8265045EA0304CE10DD
:1008500000F1200545F82640F0BD000070B50021EC
:1008600000230F22C4781CB3174C246804F4E064FE
:10087000C4F5E064C4F30721C1F10404E3B20A4102
:1008800044789C40E1B28478144021430C07210E47
:100890000E4C05786155047804F01F050124AC4026
:1008A00005786D11AD0005F1E025C5F8004109E0BE
:1008B000047804F01F050124AC40054D067876113C
:1008C00045F8264070BD00000CED00E000E400E0BB
:1008D00080E100E002490143024A116070470000D4
:1008E0000000FA050CED00E029B1064A1268024347
:1008F000044B1A6004E0034A12688243014B1A60F9
:10090000704700003038024029B1064A126802439D
:10091000044B1A6004E0034A12688243014B1A60D8
:100920007047000044380240F0B500210022002446
:10093000022500260223324F3F6807F00C0121B147
:10094000042905D0082937D105E02E4F076036E08D
:100950002D4F076033E02A4F3F1F3F68C7F3805693
:10096000274F3F1F3F6807F03F036EB1264FB7FB8D
:10097000F3F7DFF88CC0ACF1040CDCF800C0CCF36A
:10098000881C07FB0CF40CE01E4FB7FBF3F7DFF8F5
:1009900070C0ACF1040CDCF800C0CCF3881C07FB81
:1009A0000CF4174F3F1F3F68C7F301477F1C7D00C2
:1009B000B4FBF5F7076002E0124F076000BF00BF0D
:1009C0000F4F3F6807F0F0010909104F7A5C076884
:1009D000D74047600A4F3F6807F4E051890A0B4F40
:1009E0007A5C4768D7408760054F3F6807F46041ED
:1009F000490B064F7A5C4768D740C760F0BD0000DE
:100A0000083802400024F40040787D0114000020E2
:100A10001CB501210420FFF767FF08200090032088
:100A20008DF8040000208DF8070069460148FFF7A3
:100A3000A9FE1CBD0008024010B59AB00446012171
:100A40008805FFF751FF40480C90404800680D9022
:100A500000200E900F9410904FF480601190400091
:100A60001290C0001390002014904FF400301590A5
:100A700000201690012017900020189019900B90DC
:100A80000BA93348FFF752FD01213148FFF7F2FC73
:100A900001210802FFF738FF002001900290039027
:100AA0004FF4E060049001A8FFF7D8FB05A8FFF71A
:100AB00089FC002005908DF818008DF819004FF082
:100AC000805007904FF0606008900020099001204E
:100AD0008DF8280005A91C484C38FFF7EDFB0323CF
:100AE00001220D2118484C38FFF710FC012116484F
:100AF0004C38FFF7D6FB17491548FFF787FC154917
:100B000010391348FFF782FC012210211048FFF72B
:100B1000EFFC38208DF8000000208DF80100032044
:100B20008DF8020001208DF803006846FFF796FE5D
:100B3000012105484C38FFF7A9FB012102484C3838
:100B4000FFF780FB1AB010BD4C200140EC000020E4
:100B5000106402402000001030B500228B071C0FEB
:100B60000F2303FA04F20B4B8C1053F824309343F9
:100B7000084C8D1044F8253023468C1053F824304F
:100B80008C07240F00FA04F42343024C8D1044F820
:100B9000253030BD083801400CB500200190009090
:100BA0004148006840F480303F49086000BF3E483B
:100BB000006800F4003000900198401C01900098FB
:100BC00018B90198B0F5A04FF1D13748006800F48A
:100BD000003010B10120009001E00020009000984A
:100BE000012860D130484030006840F080502E49E4
:100BF000403108602D48006840F440402B490860AF
:100C0000294808300068284908310860084600680B
:100C100040F4004008600846006840F4A0500860B6
:100C20002348091F0860081F006840F08070091FF2
:100C3000086000BF1C48006800F000700028F9D070
:100C40001A48006840F480301849086000BF17480F
:100C5000406800F480300028F9D01448006840F45F
:100C600000301249086000BF1048406800F40030AE
:100C70000028F9D040F205700E4908600A48083093
:100C8000006820F003000849083108600846006841
:100C900040F00200086000BF03480830006800F020
:100CA0000C000828F8D10CBD00380240007000404C
:100CB000195A4007003C024010B500F0B7FA10BDC9
:100CC00030B515480068154AB0FBF2F1481EB0F186
:100CD000807F01D301201BE0481E4FF0E0225061CD
:100CE00050170F22002807DA13071D0E0C4B00F0D7
:100CF0000F04241F1D5503E013071C0E094B1C5441
:100D000000BF00204FF0E02290610720106100201A
:100D100008B100BFFEE730BD0000002040420F00D8
:100D200018ED00E000E400E010B51548006840F45C
:100D30007000134908601348006840F00100114931
:100D4000086000200F49083108600E4800680E490D
:100D500008400C4908600D48091D0860081F00681C
:100D600020F48020091F0860002006490C3108602B
:100D7000FFF712FF4FF0006001498039086010BD95
:100D800088ED00E000380240FFFFF6FE103000243E
:100D900070B58CB006460C46154601210846FFF793
:100DA000A3FD01210420FFF79FFD01220821324805
:100DB000FFF730FD012209213048FFF72BFD4FF4EA
:100DC00080700A9002208DF82C0000208DF82E00F3
:100DD0008DF82F0003208DF82D000AA92648FFF773
:100DE000D1FC4FF400700A900AA92448FFF7CAFC0E
:100DF00001210846FFF788FD0896ADF81C40002049
:100E0000ADF82400ADF81E0007A91D4800F0CCF98C
:100E10007020ADF808000120ADF80A00049500200C
:100E2000ADF8140002A9164800F052F9012211464B
:100E3000134800F044F90121114800F005F901219F
:100E40000F4800F004F919208DF8040000208DF8F7
:100E5000050001208DF806008DF8070001A8FFF7B6
:100E6000FDFC0821064800F071F90121044800F05A
:100E7000FDF80CB070BD0000000002400008024008
:100E80000000014010B50121144800F007F900B33B
:100E90001348006818B900201049486302E0C820D0
:100EA0000E4948630E4801680E480068401C8142A4
:100EB0000AD10A4800884FF6FE71084007490880A9
:100EC0004FF0FF300649086005480068401C04499F
:100ED00008600121014800F0BAF810BD000001408F
:100EE000E8000020DC00002070B58CB006460C46FF
:100EF000154601210420FFF7F7FC0322062139489B
:100F0000FFF788FC40200A9002208DF82C0000207A
:100F10008DF82E008DF82F0003208DF82D000AA9E2
:100F20003048FFF72FFC01210220FFF7EDFC079668
:100F3000ADF818400020ADF82000ADF81A008DF88B
:100F4000220006A9284800F02FF94021264800F089
:100F500018F97020ADF804000120ADF806000395E3
:100F60000020ADF8100001A91F4800F0B1F80821D9
:100F70001D4800F0EBF8012211021B4800F085F833
:100F800001221146184800F09AF80121164800F095
:100F90005BF80121144800F05AF82C208DF8240049
:100FA00000208DF8250002208DF8260001208DF804
:100FB000270009A8FFF752FC01210B4800F056F862
:100FC00080210A4800F0D4F81021084800F0D9F830
:100FD0000621054800F0DEF80021034800F0BFF8C4
:100FE0000CB070BD00080240000401400000014048
:100FF00010B50121104800F051F8C0B10F48006849
:10100000401C0E4908600E4800680E4909680844F3
:10101000401C0A490968884209D1074800884FF6F0
:10102000FE7108400449088000200449086001213D
:10103000014800F00CF810BD00040140E000002061
:10104000DC000020E4000020CA4302827047CA434B
:101050000282704721B1028842F00102028004E05E
:1010600002884FF6FE731A400280704731B1B0F823
:10107000442042F40042A0F8442005E0B0F84420A7
:10108000C2F30E02A0F8442070471AB183890B43C3
:10109000838102E083898B438381704730B50246A8
:1010A000002000230024158A05EA0103958905EA3A
:1010B000010413B10CB1012000E0002030BD1AB1D1
:1010C00083890B43838102E083898B43838170474B
:1010D00070B5002400220023058C4FF6FE763540C3
:1010E0000584028C8388048B4FF68F752C40B51EC7
:1010F0002C400D882C43751E2A408D892A434D882B
:101100002A43104DA84202D00F4DA84213D14FF6EA
:10111000F7752A40CD892A434FF6FB752A408D8802
:101120002A434FF6FF652B404FF6FF552B400D8AA3
:101130002B434D8A2B43838004838D68456302844F
:1011400070BD000000000140000401400A4600217B
:10115000018B4FF6F77319401143018370470A461C
:10116000002101894FF68F731940114301817047A7
:1011700002894FF67F731A40028102890A43028175
:10118000704782884FF68F731A40828082880A43A4
:101190008280704702894FF6F8731A4002810289F3
:1011A0000A4302817047000000220288184B9842CF
:1011B0000ED0184B98420BD0B0F1804F08D0164B90
:1011C000984205D0154B984202D0154B984204D155
:1011D0004FF68F731A404B881A43124B984207D030
:1011E000114B984204D04FF6FF431A400B891A4323
:1011F00002804B68C3620B880385054B984202D07E
:10120000044B984201D18B7A038601238382704775
:1012100000000140000401400004004000080040BC
:10122000000C00400010004000140040044800681A
:1012300020B103480068401E014908607047000063
:10124000F000002021B1828942F40052828104E042
:1012500082894DF6FF731A40828170470246002052
:10126000B1F5007F00D100BF13880B400BB1012006
:1012700000E00020704700002DE9FF4705460E46BC
:101280000024A14600BFA046B08900B100BF2C8A4F
:1012900024F44054F08804432C82AC8941F20C6061
:1012A0008443B08831890843718908430443AC8181
:1012B000AC8A24F44074B0890443AC826846FFF7DA
:1012C00033FB2048854202D01F48854202D1DDF819
:1012D0000C9001E0DDF80890A88900F4004040B1CE
:1012E00009EBC90000EB091031684900B0FBF1F7C8
:1012F00007E009EBC90000EB091031688900B0FB79
:10130000F1F76420B7FBF0F004012009642101FB30
:101310001078A88900F4004040B1322000EBC800EA
:10132000B0FBF1F000F00700044308E0322000EBCE
:1013300008106421B0FBF1F000F00F0004432C8191
:10134000BDE8FF870010014000140140C1F308020E
:10135000828070470FB4054B10B503A9044A029868
:1013600000F018F810BC5DF814FB0000AD15000883
:10137000F400002002E008C8121F08C1002AFAD1B8
:1013800070477047002001E001C1121F002AFBD105
:10139000704700002DE9FF4F89B09B4604460025A9
:1013A00006E025280BD05A460B999047641C6D1C0B
:1013B00020780028F5D10DB02846BDE8F08F002731
:1013C000B8460122474900E0074314F8013F203B9B
:1013D00002FA03F00842F7D120782E2819D114F828
:1013E000010F47F004072A280ED06FF02F02207853
:1013F000A0F1300109290CD808EB880102EB41016A
:1014000000EB0108641CF2E70A98641C50F8048B96
:101410000A9020780028CED0642808D0692806D009
:1014200075281ED05A460B9990476D1C58E00A99B2
:101430004FF00A0901C90A91002802DA40422D2121
:1014400002E0390504D52B218DF82010012103E09D
:10145000F90704D02021F7E78A4608AE0DE0002105
:10146000FAE70A994FF00A0901C90A91F7E74946D4
:10147000FEF7B8FE303106F8011D0028F7D1ADEBBC
:10148000060000F12009780701D44FF00108C84593
:1014900002DDA8EB090000E000208046002706E0FE
:1014A00008A85A46C05D0B9990476D1C7F1C574594
:1014B000F6DB04E030205A460B9990476D1CB8F1DA
:1014C0000001A8F10108F5DC05E016F8010B5A4609
:1014D0000B9990476D1CB9F10001A9F10109F4DCE9
:1014E000641C65E70928010010B504460020254961
:1014F0000860254908602548006898B92046FEF72D
:1015000099FE2349098888B20022B321FFF740FCE5
:10151000204909888AB22049098888B2B321FFF797
:10152000E3FC29E001211D48FFF78EFD01211B4846
:10153000FFF78DFD01211A48FFF786FD01211848AC
:10154000FFF785FD174804600121001FFEF792FF99
:101550001548006820F02000134908600121124856
:10156000FEF794FE012211460C48FFF7A8FD012268
:1015700011460B48FFF7A3FD01210948FFF76AFD5B
:1015800010BD0000E8000020E0000020CC0000209A
:10159000C4000020C0000020BC0000200004014066
:1015A00000000140146402400020014070B5044670
:1015B0000D46E1B20548FFF7C9FE00BF8021034890
:1015C000FFF74CFE0028F9D0204670BD0010014006
:1015D00040F2FF1027490860FFF772FBFFF796F80B
:1015E000FEF7D0FF23490968234A12681144234AB1
:1015F0001268521C5143480000F064F8204908600A
:101600000846006810B91FA0FFF7A4FE1949096831
:10161000194A12688818FFF767FF29E02548006813
:10162000012802D0022822D103E00A2021490860C3
:101630001DE00A201F4908601F480068401C1E4921
:10164000086008460068012811DD0B48046807E0BF
:101650000B48006830F8141018A0FFF77BFE641CDC
:1016600004480068044909680844A042F0DC00BF4F
:10167000D4E70000DC000020E4000020B4000020DB
:10168000EC00002053415F494D535F4144435F43A9
:101690006F6E76657274656456616C756520616CF9
:1016A0006C6F63617465206661696C7572650D0AA3
:1016B00000000000D4000020CC00002025640D0AAA
:1016C00000000000F0B50B30154D20F0070100249C
:1016D000144A0FE003688B420BD38B4205D95E1A84
:1016E00043184768C3E9006700E04368136002C01D
:1016F00004E0021D10680028ECD12046002802D129
:10170000286808B10020F0BD064A07481060074A63
:10171000121A22F00702C0E9002401202860D7E74E
:10172000FC000020F800002004010020000102203D
:10173000501700080000002000010000741300088A
:101740005018000800010020000402008413000863
:101750000095BA0A00000000000000000102030426
:101760000607080900000000010203040102030447
:1017700006070809170000002D00000067000000A0
:10178000CB000000B3010000FD030000DB070000F8
:10179000A50F00008B270000414E00000000000054
:1017A000000000000400000005000000060000002A
:1017B0000700000008000000090000000A00000007
:1017C0000B0000000C0000000D0000000E000000E7
:1017D0000F000000100000001F0000003F0000008C
:1017E0007F000000FF000000FF010000FF03000079
:1017F000FF070000FF0F0000FF1F000000000000B7
:101800000000000000000000010000006300000074
:1018100032000000630000006400000000000000CF
:10182000000000000000000000000000FF010000B8
:1018300000000000030000000000000000000000A5
:101840000000000000000000000000000000000098
:04000005080001AD41
:00000001FF
